:020000040800F2
:10000000A80600208901000891010008930100085A
:100010009501000897010008990100080000000000
:100020000000000000000000000000009B0100082C
:100030009D010008000000009F010008A1010008C8
:10004000A3010008A3010008A3010008A301000800
:10005000A3010008A3010008A3010008A3010008F0
:10006000A3010008A3010008A3010008A3010008E0
:10007000A3010008A3010008A3010008A3010008D0
:10008000A3010008A3010008A3010008A3010008C0
:10009000A3010008A3010008A3010008A3010008B0
:1000A000A3010008A3010008A3010008A3010008A0
:1000B000A3010008A3010008A3010008A301000890
:1000C000A3010008A3010008A3010008A301000880
:1000D000A3010008A3010008A3010008A301000870
:1000E000A3010008A3010008A301000800F002F822
:1000F00000F03AF80AA090E8000C82448344AAF188
:100100000107DA4501D100F02FF8AFF2090EBAE885
:100110000F0013F0010F18BFFB1A43F0010318473B
:1001200080040000A0040000103A24BF78C878C101
:10013000FAD8520724BF30C830C144BF04680C60ED
:10014000704700000023002400250026103A28BF35
:1001500078C1FBD8520728BF30C148BF0B60704739
:100160001FB51FBD10B510BD00F031F81146FFF7E7
:10017000F7FF00F0D7F900F04FF803B4FFF7F2FFF4
:1001800003BC00F057F800000948804709480047C1
:10019000FEE7FEE7FEE7FEE7FEE7FEE7FEE7FEE737
:1001A000FEE7FEE704480549054A064B7047000094
:1001B000A9040008ED000008A8000020A8060020FF
:1001C000A8020020A80200207047704770477546BB
:1001D00000F02CF8AE4605006946534620F00700B3
:1001E000854618B020B5FFF7DDFFBDE820404FF091
:1001F00000064FF000074FF000084FF0000B21F011
:100200000701AC46ACE8C009ACE8C009ACE8C009DD
:10021000ACE8C0098D46704710B50446AFF30080C6
:100220002046BDE81040FFF7A8BF00000048704717
:100230004400002001491820ABBEFEE72600020062
:100240007047000000B51B48006840F0AA0019493B
:100250000860142000F058F91648006800F05500B6
:1002600014490860142000F04FF91248006840F06B
:10027000FF00104908600846006840F0550008601B
:10028000142000F041F90B48006800F0AA00094969
:100290000860142000F038F90648006840F0FF00BC
:1002A000044908600448006800F0010000B900BD7E
:1002B00000BFFCE70C080140080C01400C488069B5
:1002C00040F008000A4988610A48006860F00F00A1
:1002D000084908600846006840F0080008600548C2
:1002E0000C30006820F0010002490C3108607047B2
:1002F00000100240000C01400748806940F00400F3
:100300000549886105480068044908600846006896
:1003100040F0333008607047001002400008014090
:1003200010B5002419E00F4800680F4951F8241057
:1003300008430C490860142000F0E6F809480068FA
:10034000094951F8241088430649086007480068A5
:1003500000F0010000B910BD641C082CE3DB00BFF5
:10036000F9E700000C08014000000020080C0140E3
:1003700010B5002419E00F4800680F4951F8241007
:1003800008430C490860142000F0BEF809480068D2
:10039000094951F824108843064908600748006855
:1003A00000F0010000B910BD641C082CE3DB00BFA5
:1003B000F9E700000C08014020000020080C014073
:1003C00010B500F001F810BD0CB5002001900090B0
:1003D0003348006840F480303149086000BF30483D
:1003E000006800F4003000900198401C01900098D3
:1003F00018B90198B0F5A06FF1D12948006800F450
:10040000003010B10120009001E000200090009821
:10041000012843D12348006840F0100021490860BA
:100420000846006820F0030008600846006840F0B5
:10043000020008601A484068194948600846406848
:1004400048600846406840F480604860084640685C
:1004500020F47C1048600846406840F4E81048608A
:100460000846006840F08070086000BF0C480068D3
:1004700000F000700028F9D00948406820F003001F
:10048000074948600846406840F00200486000BFE5
:100490000348406800F00C000828F9D10CBD0000AA
:1004A000001002400020024010B51348006840F0E0
:1004B00001001149086008464068104908400E498B
:1004C0004860084600680E4908400B490860084625
:1004D000006820F4802008600846406820F4FE0090
:1004E00048604FF41F008860FFF76AFF4FF000601C
:1004F0000449086010BD0000001002400000FFF831
:10050000FFFFF6FE08ED00E0002107E0002200E01A
:10051000521C42F6FF239A42FADB491C8142F5DB6A
:1005200070470000FFF7E8FEFFF7C8FE19480068B3
:1005300040F0FF0017490860002429E0032094FBE5
:10054000F0F100FB11451448007878B125B1012D78
:1005500005D0022D09D105E0FFF70AFF05E0FFF7FE
:1005600071FE02E0FFF7DCFE00BF00BF0B48006831
:1005700000F0010020B9012007490870641C06E062
:10058000044800684FF6FF7108430249086000BF45
:10059000D4E700000C08014040000020080C014096
:1005A000C0050008000000204400000028010008E9
:1005B000040600084400002064060000440100080E
:1005C0007F0000003F0000001F0000000F0000003F
:1005D0000700000003000000010000000000000010
:1005E000FE000000FC000000F8000000F000000029
:1005F000E0000000C00000008000000000000000DB
:0406000000000000F6
:040000050800018965
:00000001FF
