:020000040800F2
:1000000050070020C1010008C9010008CB01000809
:10001000CD010008CF010008D10100080000000058
:10002000000000000000000000000000D3010008F4
:10003000D501000800000000D7010008D901000820
:10004000DB010008DB010008DB010008DB01000820
:10005000DB010008DB010008DB010008DB01000810
:10006000DB010008DB010008DB010008DB01000800
:10007000DB010008DB010008DB010008DB010008F0
:10008000DB010008DB010008DB010008DB010008E0
:10009000DB010008DB010008DB010008DB010008D0
:1000A000DB010008DB010008DB010008DB010008C0
:1000B000DB010008DB010008DB010008DB010008B0
:1000C000DB010008DB010008DB010008DB010008A0
:1000D000DB010008DB010008DB010008DB01000890
:1000E000DB010008DB010008DB01000800F002F87A
:1000F00000F03CF80AA090E8000C82448344AAF186
:100100000107DA4501D100F031F8AFF2090EBAE883
:100110000F0013F0010F18BFFB1A43F0010318473B
:10012000AC0A0000CC0A0000103A24BF78C878C19D
:10013000FAD8520724BF30C830C144BF04680C60ED
:10014000704700000023002400250026103A28BF35
:1001500078C1FBD8520728BF30C148BF0B60704739
:100160001FB500F062F81FBD10B510BD00F069F8B2
:100170001146FFF7F5FF00F005FA00F087F803B429
:10018000FFF7F2FF03BC00F091F800000B49D1F833
:1001900000C04A685CF8043B1068184442F8040B3D
:1001A0008C4528BFA1F1DC0C8A4228BFA1F1DC02FA
:1001B000C1F800C04A6020F000407047E80000200D
:1001C0000948804709480047FEE7FEE7FEE7FEE7EB
:1001D000FEE7FEE7FEE7FEE7FEE7FEE70448054927
:1001E000054A064B704700000D040008ED000008AA
:1001F0005001002050070020500300205003002031
:100200000B4910B5A1F17C020A4CC2E93712372123
:1002100006E000EB104342F82130074B00FB03409F
:100220000B1EA1F10101F4DC10BD0120E8E7000084
:1002300088000020E119D666CD0D01007047704797
:100240007047754600F02CF8AE46050069465346E7
:1002500020F00700854618B020B5FFF7BFFFBDE8C6
:1002600020404FF000064FF000074FF000084FF01D
:10027000000B21F00701AC46ACE8C009ACE8C009AE
:10028000ACE8C009ACE8C0098D46704710B504461B
:10029000AFF300802046BDE81040FFF770BF0000BC
:1002A00000487047F0000020704700000149182006
:1002B000ABBEFEE7260002000948806940F0080056
:1002C00007498861074800680749084305490860ED
:1002D0000846006840F688010843024908607047F4
:1002E00000100240000C014000F0FFFF0B48806945
:1002F00040F0100009498861094800680849086011
:100300000846006840F0333008600846406848609E
:100310000846406840F033304860704700100240A3
:100320000010014010B500F001F810BD0CB5002020
:10033000019000903348006840F4803031490860F3
:1003400000BF3048006800F4003000900198401C65
:100350000190009818B90198B0F5A06FF1D1294823
:10036000006800F4003010B10120009001E000208E
:1003700000900098012843D12348006840F0100005
:10038000214908600846006820F00300086008461C
:10039000006840F0020008601A4840681949486047
:1003A0000846406848600846406840F480604860FD
:1003B0000846406820F47C1048600846406840F4D5
:1003C000E81048600846006840F08070086000BF90
:1003D0000C48006800F000700028F9D00948406817
:1003E00020F00300074948600846406840F00200DA
:1003F000486000BF0348406800F00C000828F9D1AD
:100400000CBD0000001002400020024010B513484F
:10041000006840F001001149086008464068104932
:1004200008400E494860084600680E4908400B49DC
:1004300008600846006820F480200860084640688C
:1004400020F4FE0048604FF41F008860FFF76AFF49
:100450004FF000600449086010BD00000010024029
:100460000000FFF8FFFFF6FE08ED00E010B51348AE
:10047000C0684FF6FF7108431049C8600A2000F0B9
:1004800043F8002416E00D48C0684FF48071214104
:1004900088430A49C8600846C0688021A140884353
:1004A0000649C86000F00CF800B105E00A2000F031
:1004B0002BF8641C082CE6DD00BF10BD00100140C5
:1004C0000D48006800F007000C4908600846006805
:1004D0000B490968884208D00848006828B10748D5
:1004E0000068084908600120704704480068044912
:1004F00008600020F8E70000080C0140040000201C
:100500000000002008000020002107E0002200E099
:10051000521C42F6FF239A42FADB491C8142F5DB6A
:100520007047000030B51648C0684FF6FF710843A9
:100530001349C8600A20FFF7E7FF0F251CE00024DD
:1005400016E00F48C068611E01228A4010430C4922
:10055000C8600846C0680121A14088430849C860B6
:10056000FFF7AEFF00B105E00A20FFF7CDFF641CE6
:10057000AC42E6DD00BF6D1E002DE0DA30BD0000AC
:1005800000100140FFF7B2FEFFF796FE1DE00F4896
:10059000C0684FF6FF7108430C49C8600C480068FA
:1005A00000F007000B49086008460068012802D0E7
:1005B000022806D102E0FFF759FF05E000F00CF831
:1005C00002E0FFF7AFFF00BF00BFE0E7001001400F
:1005D000080C0140080000202DE9F84F2A48C068A7
:1005E0004FF6FF7108432849C8600A20FFF78CFFC7
:1005F0004FF0030A43E02448C0684FF6FF710843F8
:100600002149C860FFF7C2FD009000F0CAF980469A
:1006100000221E4B00F0DCF9064600221C4B00F0C5
:1006200039F8044600F08EF983461748C068012166
:1006300001FA0BF188431449C86000241BE01248FA
:10064000C0680121A14088430F49C8605C4501D1C1
:100650000AF1010A0C48C1680120A04040FA0AF0E2
:1006600001430948C160FFF72BFF00B105E00A20F4
:10067000FFF74AFF641C102CE1DB00BF00BFBAF19A
:10068000100FB8DBBDE8F88F0010014000003040CB
:100690000000E0412DE9C04130B4DFF8A0C23CEADF
:1006A000111418BF3CEA131400F0EC8081EA030532
:1006B0001CEA111444EAD57418BF1CEA131500F0A3
:1006C000C780A4EB05044FF0004545EAC12145EA87
:1006D000C32341EA505143EA525304F17F749942D3
:1006E00004F500344FEAC0204FEAC22208BF90420E
:1006F00000F09C804FEA13650FF24016765D4FEADA
:10070000134506FB05F7C7F1807706FB07F74FEAAD
:10071000D737A7FB03687642C8F58038A7FB06CE1B
:1007200038BFA8F1010807FB08E64FF0000EA6FB52
:10073000028CE6FB03CEDCF1000CCEF1004E38BF9C
:10074000AEF1010EA6FB0C584FF000074FF000056C
:10075000E6FB0E87A1FB08C6A0FB07CE16EB0E0634
:1007600045F10005E1FB076515F1E04E7EBFA4F5FC
:1007700080345FEA46066D4116F1800745F10005B9
:100780004FEA17274FEA066647EA0567A6F1DE46F5
:10079000B6F1805F4FEA15251FD9384624F0010CC9
:1007A00005EBC471BCF1FE6F01EB0C1102D8F0BC7B
:1007B000BDE8008124425CBF01F5801E9EEAC47F33
:1007C00002D4F0BCBDE80081244238D4F0BCA1F1D1
:1007D000C041BDE8004100F0F3B94FEAD22242EA3D
:1007E00043524FEAD323A7FB02864FEAD02040EAC8
:1007F000415007FB03661EEA0E0F4FEAD12105FBAD
:10080000026658BFA6EB0056B6EB00564FEA520EF2
:100810004EEAC37E18EB0E0E56EB530EBDD518EB09
:1008200002085E417F1C55F10005B6E74FF48015C4
:100830004FF000074FF000064FF00008ADE7F0BCA6
:100840004FF0000001F1C04101F00041BDE800811E
:1008500011EA0C1F0CEA131500D00CE013EA0C1F70
:1008600000F025804FF00000F0BC81EA030101F0A8
:100870000041BDE80081F0BCBDE8004181EA030110
:1008800000F09EB9F0BCBDE8004170B500F04AF937
:10089000097EFC3E00F007B881EA03014FF000003A
:1008A00001F00041704781EA030100F089B9F0BC12
:1008B000BDE800414FF0000021497047FFFDFBF902
:1008C000F7F5F4F2F0EEEDEBE9E8E6E4E3E1E0DE83
:1008D000DDDBDAD8D7D5D4D3D1D0CFCDCCCBCAC8F5
:1008E000C7C6C5C4C2C1C0BFBEBDBCBBBAB9B8B71C
:1008F000B6B5B4B3B2B1B0AFAEADACABAAA9A8A80F
:10090000A7A6A5A4A3A3A2A1A09F9F9E9D9C9C9BDC
:100910009A99999897979695959493939291919087
:100920008F8F8E8E8D8C8C8B8B8A89898888878718
:100930008685858484838382828181800000FF078D
:100940000000F87F4FEA41034FEA5353A3F5806359
:10095000D3F11E03C8BFD3F1210C0CDD4FF00042D0
:1009600042EAC12242EA505232FA03FC8CEAE17CAC
:10097000ACEBE1707047102BC4BF0020704703F54B
:10098000787CBCF1FF3F04D06FF0004282EA210086
:10099000704770B500F0C6F8499224800020704777
:1009A000F2E710F0004248BF4042B0FA80F310FA7C
:1009B00003F10AD0C3F11D0303F580634FEA4150F0
:1009C00002EB035202EBD12170474FF00000704759
:1009D000DFF848C170B51CEA111E1EBF1CEA1315D2
:1009E0009EEA0C0F95EA0C0F00F06F8081EA030479
:1009F00023EA4C134EEAD47E21EA4C1141F48011D3
:100A000043F48013AE44A1FB024CA0FB0365AEF19E
:100A10007F7E361955EB0C05A1FB034C4CF100030E
:100A2000A0FB021C16EB0C06654153F100030942C2
:100A300018BF46F0010613F4007F0BD14FEA0331D3
:100A40004FEA0530340341EA155140EA16506FF081
:100A500003020AE04FEAC3214FEAC520F40241EA4B
:100A6000555140EA56506FF0020202EB2E4201EB64
:100A7000025585EACE710AD05FEA440C18BF24F013
:100A8000004450F1000041F1000120EAD47040F22E
:100A9000FE7C624500D270BDA84214BF4FF0804476
:100AA0004FF04044002E08BF0024BEF1806FA8BF65
:100AB000A1F1C041BDE8704080F282804FF000009B
:100AC00001F1C04101F0004170479EEA0C0F0CEAB1
:100AD000131518BF95EA0C0F06D04FF0000081EAFD
:100AE000030E0EF0004170BD00F01CF88900013EBD
:100AF00000F007B800F009B84FEA430C5FEA5C5C0D
:100B000008D081EA030100F05BB84FEA410C5FEACC
:100B10005C5CF6D14FF00000014970470000FF0710
:100B20000000F87F0EF1020E2EF0030E5EF8046B4B
:100B3000364205D4012A43EB030515F5001F12D8F0
:100B4000012841EB010C1CF5001F0CD80ED14FEA17
:100B5000D17C15F5001F0CEB4C0C0CF1020C08BFFE
:100B60004CEBD37C04E04FF0080C01E04FEAD37C5F
:100B70000CEB4C0526FA05F606F00706B6F1040C58
:100B800006D20EEB860CBDE870404CF0010C6047BD
:100B9000DFE80CF0090B02024FF000414FF00000BB
:100BA000A1F5002170BD19461046012851EB010442
:100BB00018BFD4F5001484BF002001F0004170BDBF
:100BC0000808A0F500114FEA31017047EC0B00084E
:100BD000000000200C00000028010008F80B0008AD
:100BE0000C00002044070000440100080000000041
:080BF0000000000000000000FD
:04000005080001C12D
:00000001FF
