:020000040800F2
:10000000880600208901000891010008930100087A
:100010009501000897010008990100080000000000
:100020000000000000000000000000009B0100082C
:100030009D010008000000009F010008A1010008C8
:10004000A3010008A3010008A3010008A301000800
:10005000A3010008A3010008A3010008A3010008F0
:10006000A3010008A3010008A3010008A3010008E0
:10007000A3010008A3010008A3010008A3010008D0
:10008000A3010008A3010008A3010008A3010008C0
:10009000A3010008A3010008A3010008A3010008B0
:1000A000A3010008A3010008A3010008A3010008A0
:1000B000A3010008A3010008A3010008A301000890
:1000C000A3010008A3010008A3010008A301000880
:1000D000A3010008A3010008A3010008A301000870
:1000E000A3010008A3010008A301000800F002F822
:1000F00000F03AF80AA090E8000C82448344AAF188
:100100000107DA4501D100F02FF8AFF2090EBAE885
:100110000F0013F0010F18BFFB1A43F0010318473B
:10012000D0060000F0060000103A24BF78C878C15D
:10013000FAD8520724BF30C830C144BF04680C60ED
:10014000704700000023002400250026103A28BF35
:1001500078C1FBD8520728BF30C148BF0B60704739
:100160001FB51FBD10B510BD00F044F81146FFF7D4
:10017000F7FF00F069F900F062F803B4FFF7F2FF4F
:1001800003BC00F065F800000948804709480047B3
:10019000FEE7FEE7FEE7FEE7FEE7FEE7FEE7FEE737
:1001A000FEE7FEE704480549054A064B7047000094
:1001B0007D030008ED00000888000020880600206C
:1001C000880200208802002070477047704710B5F1
:1001D00000F008F8006810BD10B5044600F002F801
:1001E000046010BD00487047280000200048704798
:1001F000280000207546FFF7F9FFAE460500694666
:10020000534620F00700854618B020B5FFF7CAFF17
:10021000BDE820404FF000064FF000074FF0000807
:100220004FF0000B21F00701AC46ACE8C009ACE888
:10023000C009ACE8C009ACE8C0098D46704710B5EC
:100240000446AFF300802046BDE81040FFF795BF9D
:1002500001491820ABBEFEE72600020070470000EF
:100260000948806940F01000074988610748006824
:1002700040F070400549086008460068044908439A
:100280000249086070470000001002400010014061
:100290003333330310B500F001F810BD0CB5002066
:1002A000019000903348006840F480303149086084
:1002B00000BF3048006800F4003000900198401CF6
:1002C0000190009818B90198B0F5A06FF1D12948B4
:1002D000006800F4003010B10120009001E000201F
:1002E00000900098012843D12348006840F0100096
:1002F000214908600846006820F0030008600846AD
:10030000006840F0020008601A48406819494860D7
:100310000846406848600846406840F4806048608D
:100320000846406820F47C1048600846406840F465
:10033000E81048600846006840F08070086000BF20
:100340000C48006800F000700028F9D009484068A7
:1003500020F00300074948600846406840F002006A
:10036000486000BF0348406800F00C000828F9D13D
:100370000CBD0000001002400020024010B51348E0
:10038000006840F0010011490860084640681049C3
:1003900008400E494860084600680E4908400B496D
:1003A00008600846006820F480200860084640681D
:1003B00020F4FE0048604FF41F008860FFF76AFFDA
:1003C0004FF000600449086010BD000000100240BA
:1003D0000000FFF8FFFFF6FE08ED00E02DE9F05FFA
:1003E0008246BAF1020F02DA0020BDE8F09F4FF01A
:1003F000020B08E09AFBFBF00BFB10A008B90020F1
:10040000F3E70BF1010B504600F06AF8804600F06C
:1004100035F804460D46584600F062F80646224676
:100420002B4600F075F8E5D90120DEE7002107E052
:10043000002200E0521C42F6FF239A42FADB491CDC
:100440008142F5DB70470000FFF70AFF10E002244D
:100450000CE02046FFF7C2FF20B1064850F8240008
:100460000549C8601E20FFF7E1FF641C0A2CF0DB81
:10047000EDE7000000000020001001402DE9F041F0
:1004800006460F4600F0CEF8041E0D4618BF0120A8
:10049000284320F00040C0F17F6000F1E040C00F31
:1004A0000ED0301C18BF0120384320F00040C0F1AE
:1004B0007F6000F1E040C00F04BF0120FFF78CFE19
:1004C00020462946BDE8F081491058BFC1F140419E
:1004D0005B1058BFC3F140438B42EFF3008070477D
:1004E00010F0004248BF4042B0FA80F310FA03F126
:1004F0000AD0C3F11D0303F580634FEA415002EBBC
:10050000035202EBD12170474FF00000704700000A
:1005100051EA030C17D41CF5801F58BFBCF5801F8F
:1005200000F10680994218BF704708BF904270479B
:1005300007D711F5801F58BF13F5801F19D49942B2
:100540007047894270471CF5801F08D5BCF5801F95
:10055000F7D58B4218BF704708BF824270474FF4EF
:10056000001C1CEB410F38BF1CEB430F01D28B4228
:10057000704770B500F008F8922449004FF0005120
:100580004FF08053FFF7A0BF0EF1020E2EF0030EC6
:100590005EF8046B364205D4012A43EB030515F5DA
:1005A000001F12D8012841EB010C1CF5001F0CD8CC
:1005B0000ED14FEAD17C15F5001F0CEB4C0C0CF161
:1005C000020C08BF4CEBD37C04E04FF0080C01E0B8
:1005D0004FEAD37C0CEB4C0526FA05F606F007062D
:1005E000B6F1040C06D20EEB860CBDE870404CF060
:1005F000010C6047DFE80CF0090B02024FF00041EC
:100600004FF00000A1F5002170BD194610460128E9
:1006100051EB010418BFD4F5001484BF002001F091
:10062000004170BD2DE9F04101F5801CBCF5001FB3
:10063000C0F2C3804FEA115C21EA0C510CF1FD0CB1
:1006400041F480115FEA5C0C0CF5C07C01D34000E2
:1006500049413DA4890241EA905187028E0E0A0C5D
:10066000A45D04FB04F602FB06F6C6F14046A4FBBB
:100670000662F60D46EA422606FB06F4A4FB0123B9
:100680005242C3F1404338BF5B1EA6FB0242002426
:10069000E6FB0324D20B42EA4446A6FB0623A1FB59
:1006A00002E2A3FB07E4A4184FF0000252F100029B
:1006B000E3FB01426442C2F1404E38BFAEF1010E8D
:1006C000A6FB04234FF00002E6FB0E32A2FB03461A
:1006D0004FF00004B61954F10004E2FB0264A1FBE0
:1006E00006E6A4FB07E816EB08064FF0000858F1F1
:1006F0000008E4FB01687642C8F1405838BFA8F111
:100700000108A2FB06E4A3FB08E52D194FF0000445
:1007100054F10004E2FB0854A1FB05E6A7FB04E842
:1007200018EB06084FF0000656F10006E1FB0486C0
:1007300018F1200556F10006A809A8F11B08B10917
:1007400008F03F08B8F10A0F40EA86601CD901EBB7
:100750000C51BDE8F08100BFFCF5EEE8E2DDD8D336
:10076000CFCBC7C3C0BDB9B6B4B1AEACA9A7A5A322
:10077000A19F9D9B9A9896959392908F8D8C8B8933
:100780008887868584838281A0FB006800FB01F254
:1007900008EB4208B8EB872807D5341858EB01045A
:1007A000D5D5401C51F10001D1E7341A78EB010492
:1007B000CDD4401E71F10001C9E75FEA4C0C5FEA3D
:1007C0009C5C0DD105D34FF0000001F00041BDE865
:1007D000F081BDE8F04170B5FFF7D6FE6DDBFFBEDE
:1007E000BDE8F0414FF00000004970470000F87F7D
:1007F0001008000800000020280000002801000860
:1008000038080008280000206006000044010008A5
:10081000C0000000F9000000A4000000B0000000CB
:10082000990000009200000082000000F800000023
:080830008000000090000000B0
:040000050800018965
:00000001FF
