:020000040800F2
:100000007006002089010008910100089301000892
:100010009501000897010008990100080000000000
:100020000000000000000000000000009B0100082C
:100030009D010008000000009F010008A1010008C8
:10004000A3010008A3010008A3010008A301000800
:10005000A3010008A301000889030008CD030008DC
:1000600011040008A3010008A3010008A30100086F
:10007000A3010008A3010008A3010008A3010008D0
:10008000A3010008A3010008A3010008A3010008C0
:10009000A3010008A3010008A3010008A3010008B0
:1000A000A3010008A3010008A3010008A3010008A0
:1000B000A3010008A3010008A3010008A301000890
:1000C000A3010008A3010008A3010008A301000880
:1000D000A3010008A3010008A3010008A301000870
:1000E000A3010008A3010008A301000800F002F822
:1000F00000F03AF80AA090E8000C82448344AAF188
:100100000107DA4501D100F02FF8AFF2090EBAE885
:100110000F0013F0010F18BFFB1A43F0010318473B
:10012000C8060000E8060000103A24BF78C878C16D
:10013000FAD8520724BF30C830C144BF04680C60ED
:10014000704700000023002400250026103A28BF35
:1001500078C1FBD8520728BF30C148BF0B60704739
:100160001FB51FBD10B510BD00F031F81146FFF7E7
:10017000F7FF00F0E3FA00F04FF803B4FFF7F2FFE7
:1001800003BC00F057F800000948804709480047C1
:10019000FEE7FEE7FEE7FEE7FEE7FEE7FEE7FEE737
:1001A000FEE7FEE704480549054A064B7047000094
:1001B000C5050008ED000008700000207006002052
:1001C000700200207002002070477047704775462B
:1001D00000F02CF8AE4605006946534620F00700B3
:1001E000854618B020B5FFF7DDFFBDE820404FF091
:1001F00000064FF000074FF000084FF0000B21F011
:100200000701AC46ACE8C009ACE8C009ACE8C009DD
:10021000ACE8C0098D46704710B50446AFF30080C6
:100220002046BDE81040FFF7A8BF00000048704717
:100230000C00002001491820ABBEFEE7260002009A
:10024000704700001648806940F001001449886139
:100250000120144988601448006840F001001249E8
:10026000086011480C3800680F490C390860081DF7
:10027000006840F00100091D08600020091D0860A9
:1002800009481438006840F0010007491439086033
:100290000020091D086040200449086070470000E4
:1002A00000100240000001401404014000E100E0A1
:1002B0001648806940F001001449886110201449F3
:1002C00088601448006840F0010012490860114835
:1002D0000C3800680F490C390860081D006840F0B0
:1002E0000100091D08600020091D08600948143834
:1002F000006840F001000749143908600020091D1A
:100300000860802004490860704700000010024027
:10031000000001401404014000E100E0164880693B
:1003200040F0010014498861881514498860144818
:10033000006840F001001249086011480C3800685C
:100340000F490C390860081D006840F00100091DC4
:1003500008600020091D086009481438006840F052
:1003600001000749143908600020091D086088153C
:10037000044908607047000000100240000001407E
:100380001404014000E100E010B50D4800680128A8
:1003900015D10B4814380068012810D108480068AE
:1003A00040F00100064908600121064800F088F885
:1003B00080F0010422460121034800F08AF810BDB4
:1003C0001404014000100140000C014010B50D481C
:1003D0000068012815D10B4814380068012810D195
:1003E0000848006840F001000649086002210648FC
:1003F00000F066F880F0010422460221034800F074
:1004000068F810BD1404014000100140000C0140C8
:1004100010B50D480068012815D10B481438006844
:10042000012810D10848006840F001000649086022
:100430000421064800F044F880F00104224604211B
:10044000034800F046F810BD1404014000100140BC
:10045000000C01400948806940F0080007498861A4
:1004600007480068074908430549086008460068CE
:1004700040F68801084302490860704700100240B6
:10048000000C014000F0FFFF0B48806940F01000B5
:1004900009498861094800680849086008460068F9
:1004A00040F03330086008464068486008464068BD
:1004B00040F03330486070470010024000100140A7
:1004C00002460020D3680B400BB1012000E0002061
:1004D00070470AB1016100E04161704710B500F05A
:1004E00001F810BD0CB50020019000903348006861
:1004F00040F480303149086000BF3048006800F4A3
:10050000003000900198401C0190009818B90198A3
:10051000B0F5A06FF1D12948006800F4003010B1A7
:100520000120009001E0002000900098012843D1B4
:100530002348006840F01000214908600846006820
:1005400020F0030008600846006840F002000860E0
:100550001A4840681949486008464068486008469B
:10056000406840F4806048600846406820F47C1091
:1005700048600846406840F4E81048600846006853
:1005800040F08070086000BF0C48006800F0007008
:100590000028F9D00948406820F003000749486066
:1005A0000846406840F00200486000BF03484068C9
:1005B00000F00C000828F9D10CBD0000001002402A
:1005C0000020024010B51348006840F001001149B6
:1005D000086008464068104908400E4948600846CF
:1005E00000680E4908400B4908600846006820F47E
:1005F000802008600846406820F4FE0048604FF400
:100600001F008860FFF76AFF4FF000600449086030
:1006100010BD0000001002400000FFF8FFFFF6FED2
:1006200008ED00E010B51348C0684FF6FF710843AD
:100630001049C8600A2000F043F8002416E00D4875
:10064000C0684FF48071214188430A49C860084658
:10065000C0688021A14088430649C86000F00CF8BA
:1006600000B105E00A2000F02BF8641C082CE6DD40
:1006700000BF10BD001001400D48006800F00700E9
:100680000C490860084600680B490968884208D090
:100690000848006828B10748006808490860012038
:1006A000704704480068044908600020F8E700002B
:1006B000080C014004000020000000200800002079
:1006C000002107E0002200E0521C42F6FF239A427C
:1006D000FADB491C8142F5DB7047000030B5164853
:1006E000C0684FF6FF7108431349C8600A20FFF73E
:1006F000E7FF0F251CE0002416E00F48C068611ECC
:1007000001228A4010430C49C8600846C068012194
:10071000A14088430849C860FFF7AEFF00B105E07B
:100720000A20FFF7CDFF641CAC42E6DD00BF6D1E62
:10073000002DE0DA30BD000000100140FFF7A4FEFC
:10074000FFF788FEFFF77EFDFFF7B2FDFFF7E6FD3E
:1007500020E01148C0684FF6FF7108430E49C86099
:100760000E48006800F007000D4908600846006860
:10077000012804D0022805D0042809D105E0FFF79C
:1007800051FF06E000F00EF803E0FFF7A7FF00E0DE
:1007900000BF00BFDDE7000000100140080C014071
:1007A0000800002010B50F48C0684FF6FF710843DD
:1007B0000C49C8600A20FFF783FF00240EE00948B7
:1007C000C0680121A14088430649C860FFF754FF73
:1007D00000B105E00A20FFF773FF641C0F2CEEDD6B
:1007E00000BF10BD001001400808000800000020F4
:1007F0000C00000028010008140800080C0000206C
:100800006406000044010008000000000000000031
:0408100000000000E4
:040000050800018965
:00000001FF
