:020000040800F2
:100000007006002089010008910100089301000892
:100010009501000897010008990100080000000000
:100020000000000000000000000000009B0100082C
:100030009D010008000000009F010008A1010008C8
:10004000A3010008A3010008A3010008A301000800
:10005000A3010008A3010008A3010008A3010008F0
:10006000A3010008A3010008A3010008A3010008E0
:10007000A3010008A3010008A3010008A3010008D0
:10008000A3010008A3010008A3010008A3010008C0
:10009000A3010008A3010008A3010008A3010008B0
:1000A000A3010008A3010008A3010008A3010008A0
:1000B000A3010008A3010008A3010008A301000890
:1000C000A3010008A3010008A3010008A301000880
:1000D000A3010008A3010008A3010008A301000870
:1000E000A3010008A3010008A301000800F002F822
:1000F00000F03AF80AA090E8000C82448344AAF188
:100100000107DA4501D100F02FF8AFF2090EBAE885
:100110000F0013F0010F18BFFB1A43F0010318473B
:1001200080050000A0050000103A24BF78C878C1FF
:10013000FAD8520724BF30C830C144BF04680C60ED
:10014000704700000023002400250026103A28BF35
:1001500078C1FBD8520728BF30C148BF0B60704739
:100160001FB51FBD10B510BD00F031F81146FFF7E7
:10017000F7FF00F0FEF900F04FF803B4FFF7F2FFCD
:1001800003BC00F057F800000948804709480047C1
:10019000FEE7FEE7FEE7FEE7FEE7FEE7FEE7FEE737
:1001A000FEE7FEE704480549054A064B7047000094
:1001B00095040008ED000008700000207006002083
:1001C000700200207002002070477047704775462B
:1001D00000F02CF8AE4605006946534620F00700B3
:1001E000854618B020B5FFF7DDFFBDE820404FF091
:1001F00000064FF000074FF000084FF0000B21F011
:100200000701AC46ACE8C009ACE8C009ACE8C009DD
:10021000ACE8C0098D46704710B50446AFF30080C6
:100220002046BDE81040FFF7A8BF00000048704717
:100230001000002001491820ABBEFEE72600020096
:100240007047000010B50121042000F09FF8102035
:100250000449C8700720088003208870024800F015
:1002600005F810BD00000020000801402DE9F04114
:10027000024600250026002000230024002791F8D4
:1002800003C00CF00F0591F803C00CF0100CBCF18A
:10029000000F03D091F802C04CEA050591F800C0A8
:1002A000BCF1000F31D0146800202BE04FF0010C9E
:1002B0000CFA00F3B1F800C00CEA03069E4220D10C
:1002C00083004FF00F0C0CFA03F7BC4305FA03FC54
:1002D0004CEA040491F803C0BCF1280F06D14FF09A
:1002E000010C0CFA00FCC2F814C00AE091F803C03B
:1002F000BCF1480F05D14FF0010C0CFA00FCC2F81C
:1003000010C0401C0828D1D31460B1F800C0BCF163
:10031000FF0F34DD546800202EE000F1080C4FF090
:10032000010808FA0CF3B1F800C00CEA03069E427B
:1003300021D183004FF00F0C0CFA03F7BC4305FAF0
:1003400003FC4CEA040491F803C0BCF1280F05D16A
:1003500000F1080C08FA0CF8C2F8148091F803C0F8
:10036000BCF1480F07D100F1080C4FF0010808FA62
:100370000CF8C2F81080401C0828CED35460BDE8A9
:10038000F0814161704701617047000029B1064A60
:1003900092690243044B9A6104E0034A92698243E2
:1003A000014B9A61704700000010024010B500F048
:1003B00001F810BD0CB50020019000903348006892
:1003C00040F480303149086000BF3048006800F4D4
:1003D000003000900198401C0190009818B90198D5
:1003E000B0F5A06FF1D12948006800F4003010B1D9
:1003F0000120009001E0002000900098012843D1E6
:100400002348006840F01000214908600846006851
:1004100020F0030008600846006840F00200086011
:100420001A484068194948600846406848600846CC
:10043000406840F4806048600846406820F47C10C2
:1004400048600846406840F4E81048600846006884
:1004500040F08070086000BF0C48006800F0007039
:100460000028F9D00948406820F003000749486097
:100470000846406840F00200486000BF03484068FA
:1004800000F00C000828F9D10CBD0000001002405B
:100490000020024010B51348006840F001001149E7
:1004A000086008464068104908400E494860084600
:1004B00000680E4908400B4908600846006820F4AF
:1004C000802008600846406820F4FE0048604FF431
:1004D0001F008860FFF76AFF4FF000600449086062
:1004E00010BD0000001002400000FFF8FFFFF6FE04
:1004F00008ED00E070B5032413E004250EE0601958
:1005000007280AD10121204600F048F80121284699
:1005100000F044F8142000F01FF86D1C072DEEDDEC
:10052000641E002CE9DA032413E004250EE06019B0
:1005300007280AD10021204600F030F80021284683
:1005400000F02CF8142000F007F86D1C072DEEDDEC
:10055000641E002CE9DA70BD002107E0002200E0F3
:10056000521C42F6FF239A42FADB491C8142F5DB1A
:100570007047FFF767FE10E00225022401E0FFF755
:10058000B9FF281EA5F10105F9D101E000F058F8E6
:10059000201EA4F10104F9D100BFEDE770B50446B7
:1005A0000D46012D07D10120A040104909680843DC
:1005B0000E49086006E00120A0400C49096881430B
:1005C0000A4801600948006800F014F80120FFF7AC
:1005D000C3FF02210648FFF7D6FE0120FFF7BCFF4C
:1005E00002210348FFF7CDFE70BD0000040000208B
:1005F0000008014070B5044600251CE004F08000AE
:10060000802804D104210D48FFF7BDFE03E004213A
:100610000A48FFF7B6FE0120FFF79EFF01210748B9
:10062000FFF7B1FE0120FFF797FF01210348FFF715
:10063000A8FE64006D1C082DE0DB70BD00080140C1
:1006400070B5012429E001210720FFF7A7FF00254D
:1006500010E02E1B07E001213046FFF79FFF14201A
:10066000FFF77AFF761CAE42F5DD281B0021FFF76D
:1006700095FF6D1C082DECDBC4F1080507E0002197
:100680002846FFF78BFF1420FFF766FF6D1C082D2F
:10069000F5DB1420FFF760FF641C082CD3DB70BD72
:1006A000C00600080000002010000000280100081B
:1006B000D006000810000020600600004401000879
:1006C0000000000000000000010000000100000028
:040000050800018965
:00000001FF
